:020000040000FA
:06000000C8EF10F0120031
:020006001200E6
:0600080096EF09F0120062
:02000E000100EF
:0C0010000E22000000010000B300000000
:04001C004AEC05F0B5
:10002000FB0EDBCFF3FFDB06F35000090AE098EC90
:1000300005F0FA0E03EC06F0F3E1151CF1E1010EF8
:1000400001D0000E79EF05F04AEC05F03B0EE124FB
:1000500002E3E168E652E16E010EDB6A020EDB6A42
:10006000F90EDBCFF6FFFA0EDBCFF7FFFB0EDBCF8F
:10007000F8FF0800F550DF6EDF5002E19DEF04F05D
:10008000250EDF5C02E090EF04F0030EDB6A040E45
:10009000DB6A050EDB6A060EDB6A070EDB6AB2EC72
:1000A00004F02D0EDF5C0CE02B0EDF5C09E0200E6F
:1000B000DF5C06E0230EDF5C03E0300EDF5C1AE15C
:1000C000DF50300A14E0130A0FE0030A0AE00B0ABB
:1000D00005E0060AE4E1030EDB80E1D7030EDB82D4
:1000E000DED7030EDB84DBD7030EDB86D8D7030E07
:1000F000DB88D5D72A0EDF5C1BE1AEEC04F0FCEC0C
:1001000004F010E0030EDB8008680968130EDBCFF3
:100110000DF0140EDBCF0EF0F2EC0CF0040E06C066
:10012000DBFF03D0130EE5EC04F0B2EC04F00BD0CF
:10013000090EDB6A53EC05F003E0C7EC05F0FAD7D3
:10014000090EE5EC04F0030EDBB0DB982E0EDF5C4D
:100150001BE1B2EC04F02A0EDF5C0BE1AEEC04F024
:10016000FCEC04F003E1130E37EC05F0B2EC04F004
:100170000BD0090EDB6A53EC05F003E0C7EC05F089
:10018000FAD7090E37EC05F0680EDF5C07E1B2EC38
:1001900004F0680EDF5C1DE1030E18D0740EDF5C06
:1001A00017E07A0EDF5C14E0480EDF5C06E0540EC8
:1001B000DF5C03E05A0EDF5C02E1020E07D06C0E3A
:1001C000DF5C03E06A0EDF5C04E1010E8AEC05F0FF
:1001D000C9DBDF506E0A01E17FD31E0A01E192D133
:1001E000200A01E18FD13F0A01E149D11A0A01E158
:1001F00046D10D0A01E143D1200A01E140D13A0A7A
:1002000001E13DD1200A01E13AD1260A01E135D1CF
:100210000D0A01E132D11A0A01E1D9D0200A4AE0DF
:10022000300A1FE0460A0EE0250A01E083D3D950C8
:10023000F90FE96EFF0EDA20EA6E010EEE5E000E97
:10024000EE5AEE5A98EC05F0250EE66E95DB03E1CA
:10025000151C01E169D394EC05F001E26BD3DB2AB4
:1002600069D3080EDB6A040EDB50010806E2040EB7
:10027000DB045CEC05F0DB508BDB080EDB5009E0A7
:10028000030EDB50010B05E172DB01E04DD3080EDC
:10029000DB6A64DBEFCFDFFF0CEC06F003E1151C3B
:1002A00001E142D394EC05F001E3DB2A60DB01E1DC
:1002B00041D33AD3070EDB5002080FE1D8EC05F02A
:1002C000030E9FEC05F00E0EEECFDBFF0F0EEECF10
:1002D000DBFF100EEECFDBFF20D0F70EDBCF17F0E9
:1002E000F80EDBCF18F0020E175E000E185AF70E4C
:1002F00017C0DBFFF80E18C0DBFF17C0E9FF18C0FE
:10030000EAFF8FEC05F0166A0E0E14C0DBFF0F0E2D
:1003100015C0DBFF100E16C0DBFF0E0EDBCFE6FFB5
:100320000F0EDBCFE6FF100EDBCFE6FF2BEC0EF05F
:10033000E552E552E552130E07C0DBFF140E08C06C
:10034000DBFF060EDB5005E0130ED3EC05F001E2F7
:100350006ADBF7EC05F002E2130E37DBBAEC05F0CE
:1003600006E0040ED3EC05F002E2050E2EDB030ED0
:10037000DBB005D0FCDA01E0D7D2080EDB6A090E4B
:10038000DB6A0E0EDBCFF6FF0F0EDBCFF7FF100E92
:10039000DBCFF8FF0800F550DF6EDF5014E0FDEC16
:1003A00005F011E20CEC06F003E1151C01E1BCD2F2
:1003B000BBDB01E3DB2A090EDB2AD9500E0FE96E05
:1003C000000ECBDBE7D7D3DA01E1B4D2ADD2C6DA87
:1003D000110EEECFDBFF120EEDCFDBFF110EDBCFE8
:1003E000E6FF120EDBCFE6FF1DEC0EF0E552E55204
:1003F000130EF3CFDBFF140EF4CFDBFF060EDB5042
:1004000004E0130ED0DB01E20EDBF7EC05F002E2B4
:10041000130EDBDAAFDB05E0040EC5DB02E2050EEE
:10042000D4DA030EDBB005D0A2DA01E07DD2080EEB
:10043000DB6A090EDB6A110EDBCFE9FF120EDBCFA0
:10044000EAFFEFCFDFFFDF5014E0D7DB12E2E4DB9F
:1004500003E1151C01E168D267DB01E3DB2A090E29
:10046000DB2A110EDB2ADBCFE9FF120EE8E3DB2AE1
:10047000E6D77DDA01E15ED257D2030EDB8E070E9E
:10048000DB0410E195DB040E5ADB0A0EEECFDBFF36
:100490000B0EEECFDBFF0C0EEECFDBFF0D0EEECF23
:1004A000DBFF6CD0070EDB5003082CE1030EDBAE44
:1004B0000DD0B2DA020E76DAEFCF14F0156A166AB2
:1004C000176A14AE39D01568166835D0F70EDBCF31
:1004D00015F0F80EDBCF16F0020E155E000E165A60
:1004E000F70E15C0DBFFF80E16C0DBFF15C0E9FFE5
:1004F00016C0EAFFEFCF14F00A0E14C0DBFF0B0E9C
:10050000DB6A38D0070EDB50020809E1030EDBAED0
:1005100004D059DB16AE10D00ED055DB0DD0030E33
:10052000DBAE12D079DA020E3DDAF9DA166A176A12
:1005300015AE02D016681768E2DA0C0E16C0DBFFA3
:100540000D0E17C0DBFF1AD0F70EDBCF16F0F80E3A
:10055000DBCF17F0020E165E000E175AF70E16C00C
:10056000DBFFF80E17C0DBFF16C0E9FF17C0EAFF7C
:10057000D6DAC5DA0C0EDB6A0D0EDB6A060EDB502E
:1005800005E1010EF36E050EF3CFDBFF150EDB6AFE
:10059000160EDB6AD950370F146E000EDA20156E76
:1005A000390E14C0DBFF3A0E15C0DBFF380EDB6AD4
:1005B000080EDB6A0A0EAEDADF50780A12E0200A73
:1005C00010E0280A0CE0200A0AE03F0A06E00D0AC3
:1005D00002E0200A08E1020E05D0080E03D0080E42
:1005E000DF26100E97DA030EDBBE02D0DB92DB941F
:1005F000DB50800B24E08ADAD890030EEB50000A1F
:1006000008E6000EEE5C000EEE58000EEE58000EEE
:10061000EE5815E213DA0B680C680D680E68B0EC42
:100620000DF00A0E02C0DBFF0B0E03C0DBFF0C0E49
:1006300004C0DBFF0D0E05C0DBFF2D0E08D0030E3E
:10064000DBA202D02B0E03D0DBA408D0200EF36E69
:10065000170EF3CFDBFF150EDB2A02D0170EDB6A75
:10066000050EDB5003E1B7D901E189D0DE0E146E2F
:10067000210E156E000E166E070EDBCF17F0186AEE
:10068000196A1A6A17C00BF018C00CF019C00DF0E7
:100690001AC00EF0D3D96FEC0FF014500224F36E91
:1006A00015500320F46E16500420F86EF4CFF7FFB7
:1006B000F3CFF6FF0800090EF5CFDBFF580EDF5C25
:1006C0000FE1610EF36E090E7BD90AE3200E146E62
:1006D000090EDBCFE7FF1450E75E090EE7CFDBFF23
:1006E000070EDBCF14F0156A166A176A0FDA14C00A
:1006F0000BF015C00CF016C00DF017C00EF0EECFC9
:1007000006F0EECF07F0EECF08F0EFCF09F06FEC78
:100710000FF009C0EDFF08C0EDFF07C0EDFF06C0F8
:10072000EFFF390EDBCFE9FFDB063A0EDBCFEAFF46
:1007300001E2DB06090EDBCFEFFF150EDB2A4BD9FA
:1007400095E1030EDBA61DD06F0EDF5C06E1C1D97B
:1007500018E3150EDB285BDA14D0780EDF5C09E0B5
:10076000580EDF5C06E0620EDF5C03E0420EDF5CE9
:1007700008E1020EF36E160EF3CFDBFF02D0150E6A
:10078000DB6A030EDB50100B0EE0040EDBCF14F01F
:10079000050EDB50D880145406E2060EDB5003E150
:1007A000040EDB5034DA95D90AE2050EDBCFE7FF01
:1007B000150EDB50E75E050EE7CFDBFF02D0050E1E
:1007C000DB6A040EDBCF14F0160E45D9D880145422
:1007D00014E2160EDBCFE6FF150EDBCFE6FF040EAC
:1007E000DBCFE6FF050EDB50E552E75CE552D88033
:1007F000E754E552D880E7545FD9030EDB50010B74
:100800000BE1080EDB5008E0B2D801E08DD0080EF5
:10081000DB50BED8080EDB6A170EDB5007E088D924
:10082000170EF1D903E1151C01E17ED0160EDB5045
:1008300016E07ED9300EE66E9FD802E1151C74E0FA
:1008400077D9DFCFE6FF6EEC0DF0E552E552E552C9
:10085000F4CF15F00001F31C02E1151C65E0050E54
:10086000DBCF14F0160EDB50D880145409E2050ECD
:10087000DBCFE7FF160EDB50E75E050EE7CFDBFFB1
:10088000300EE66E050ECBD94FE1390EDB2ADBCFF9
:10089000E9FF3A0E01E3DB2ADBCFEAFF090EEFCFD7
:1008A000DBFFDB500EE044D9090EADD902E1151C87
:1008B0003BE0390EDB2ADBCFE9FF3A0EEDE3DB2A22
:1008C000EBD755D831E1160EDBCFE6FF080EC3D8C3
:1008D000E552E7245DD82ED0070EDB50030A1CE05A
:1008E000010A14E0030A07E07BD9DBCFEEFF020E1A
:1008F000DBCFEDFF1FD0F5D8196A17AE02D018680C
:1009000019682CD8BCD819C0EEFF14D0EAD817BE8D
:10091000186824D8B4D80ED063D9DBCFEFFF0AD043
:100920007BD905E1151C03E1F368F46810D0FCD80D
:1009300001E3DB2A79D939EF00F0010EDBCF14F0A7
:10094000020EDBCF15F014C0F3FF15C0F4FF3B0E11
:10095000E15C02E2E16AE552E16ECBD029D9020EF8
:100960009FEF05F061D90800F550DF6E1200200EF0
:10097000E66E080E0FEF06F06EEC0DF0E552E55254
:10098000E552F3CF14F0F4CF15F00001F31C120080
:10099000146E156AD950010F4DD91450EE2615501A
:1009A000ED221200185E000E195AF70E18C0DBFF78
:1009B000F80E19C0DBFF18C0E9FF19C0EAFF1200EA
:1009C000DBCFF4FFF350F45C1200DB50E76E040E53
:1009D000E7CFDBFF12000A0EDBCF14F00B0EDBCFEC
:1009E00015F00C0EDBCF16F00D0EDBCF17F0145008
:1009F0001510161017101200130EEECFDBFF140E99
:100A0000EDCFDBFF130EDBCF14F0140EDBCF15F0B0
:100A10000001800E15141200F70EDBCF18F0F80E4F
:100A2000DBCF19F01200050EDB50E66ED950130F24
:100A300001D9E552E750EE6EED6A12000A0EDBCFE7
:100A400006F00B0EDBCF07F00C0EDBCF08F00D0E1F
:100A5000DBCF09F01200DBCFE6FF150EDBCFE6FFA0
:100A6000050EDB50E552E724E552E7241200DB5087
:100A7000CED8010EF36E060EF3CFDBFF1200EE5060
:100A8000EFCFEAFFE96E16C0EEFF17C0EEFF18C009
:100A9000EEFF1200D9CFE6FFDACFE6FFE1CFD9FFB4
:100AA000E2CFDAFF1200DFCFE6FFE66A62EC10F079
:100AB000E552E552F3501200E76E080EE7CFDBFF78
:100AC0001200EECF14F0EECF15F0EFCF16F0176A4C
:100AD0001200050EDBCF14F0150EDB50D880145435
:100AE0001200010EDBCF16F0020EDBCF17F0186AF2
:100AF0001200E552E5CFDAFFE7CFD9FF12000A0E68
:100B000014C0DBFF0B0E15C0DBFF1200D9500A0F1B
:100B10001AEF06F0F36E070EF3CFDBFF1200EECFF5
:100B200014F0EFCF15F01200010EDB2A020E1200B6
:100B3000FC0EDBCFE6FFFD0EDBCFE6FF1200145EFE
:100B4000000E155AF70E14C0DBFFF80E15C0DBFFC0
:100B500014C0E9FF15C0EAFF1200DA20EA6EEF2A9E
:100B6000EECFF6FF000EEF22EECFF7FFEF22EECF33
:100B7000F8FF1200040EDBCFE6FF130EDB50E55248
:100B8000E75C9ADFDB5004DF060EDB501200090E33
:100B9000DB500A0DF350DF24D00FE76E090EE7CFCC
:100BA000DBFFB2EF04F0DB50F36E050EE0EF04F074
:100BB000F70EDBCF14F0F80EDBCF15F01200DFCF0D
:100BC000E6FFBCEF04F028DF030EECDE61EF05F07A
:100BD0000EEC00F0E552E552E552E5520009120034
:100BE000BDDEEE50EFCFEAFFE96E010E1200130EEC
:100BF000DB50F36E040EE0EF04F0040EDB50F36EF6
:100C0000090EE0EF04F0DBCFE6FFBCEF04F0E76E87
:100C1000050EE7CFDBFF12008BDFDFEF05F0DBCF48
:100C2000E6FF86DFE8EF05F0D950F90FE96EFF0E19
:0E0C3000ADEF05F0E96E000EDA20EA6E12005C
:020C3E008C9E8A
:100C40008C9C8C988B9E8B9C8C928C908C948C968C
:100C5000280EE66E11EC0CF0E55292889680968292
:100C600096849480948294849592959E959C959870
:100C7000949E949C95929590959495966D96280E39
:100C8000E66E11EC0CF0E552FA0EE66E040EE66E1E
:100C90008F0EE66E50EC0EF0E552E552E552A00ED6
:100CA000F26EF184640ED76ED66AC60ED56EF28EE1
:100CB0001200D9CFE6FFE1CFD9FFFCEC0FF000091D
:100CC00001E0FBD7FE0EDBCFE6FF21EC0FF0E55293
:100CD000E552E7CFD9FF1200040EE66EE4EC10F007
:100CE000E55212000F0EE66EA8EC10F0E55212006D
:100CF000050EE66EA8EC10F0E5521200D9CFE6FF23
:100D0000E1CFD9FFE652FD0EDB0403E0400EDF6EBB
:100D100001D0DF6AFE0EDB04DF26800EDF10E66EF8
:100D200021EC0FF0E552E552E552E7CFD9FF120072
:100D3000640EE66E35EC10F0E55281DF8C8E00011A
:100D40009B6B9C6B9D6BFA0E9F6FE66A020EE66EC4
:100D50001BEC10F0E552E5520001A16F010EE66EAA
:100D6000020EE66E1BEC10F0E552E5520001A26F98
:100D7000020EE66EE66E1BEC10F0E552E552000145
:100D8000A36F030EE66E020EE66E1BEC10F0E5524A
:100D9000E5520001A46F040EE66E020EE66E1BEC37
:100DA00010F0E552E5520001A56F050EE66E020E49
:100DB000E66E1BEC10F0E552E5520001A66F060E40
:100DC000E66E020EE66E1BEC10F0E552E5520001F5
:100DD000A06FA76BA86BA96BAA6BAB6BAC6BAD6B71
:100DE000B06B030EB16FB66BA10EB26F000EB36F96
:100DF000650EB46F010EB56FB76B996B9A6B8B9CD8
:100E00008C920C0EE66E55DFE552010EE66E51DF58
:100E1000E552030E0001B15D03E0020EB15D0BE18E
:100E2000020EA05D146E156A1450935D155094590E
:100E300002E2040EB16F020EB15D0DE10A0E156AF9
:100E40009325146E945115221450955D15509659A2
:100E500002E2030EB16FB1510AE1A051146E156A9E
:100E60009351145C9451155802E2020EB16F82B294
:100E700002D0010EB76F84B002D0020EB76F82B0FD
:100E800002D0040EB76F84B202D0030EB76F84B4E1
:100E900002D0050EB76F80B802D0060EB76F82B4CD
:100EA00002D0070EB76FB751070A01E138D2010A25
:100EB00001E134D2030A01E183D1040A01E105D141
:100EC000030A01E187D0060A44E0070A01E028D2BC
:100ED000B1053EE1050EB65D07E20A0EB427000E2D
:100EE000B523B22BB323B62B020EE66E010EE66ECF
:100EF00005DFE552E552B2C0E9FFB3C0EAFFEF50AB
:100F0000E66EE66AB4C0E6FFB5C0E6FF2E0E146ECC
:100F10001C0E156E166A14C0E6FF15C0E6FF16C05B
:100F2000E6FF6F0EE66E000EE66E76EC0CF0176EC6
:100F3000090EE15E17506F0EE66E000EE66E48EC8D
:100F40000FF0E552E552140EE66E35EC10F0E55266
:100F5000E7D1B1053EE1B651000807E20A0EB45FE1
:100F6000000EB55BB207B35BB607020EE66E010E6C
:100F7000E66EC4DEE552E552B2C0E9FFB3C0EAFF57
:100F8000EF50E66EE66AB4C0E6FFB5C0E6FF2E0E8F
:100F9000146E1C0E156E166A14C0E6FF15C0E6FF2F
:100FA00016C0E6FF6F0EE66E000EE66E76EC0CF0F5
:100FB000176E090EE15E17506F0EE66E000EE66EBC
:100FC00048EC0FF0E552E552140EE66E35EC10F0E9
:100FD000E552A6D1B10535E1B2C0E9FFB3C0EAFFE1
:100FE000EF06020EE66E010EE66E88DEE552E55271
:100FF000B2C0E9FFB3C0EAFFEF50E66EE66AB4C0E4
:10100000E6FFB5C0E6FF2E0E146E1C0E156E166AB6
:1010100014C0E6FF15C0E6FF16C0E6FF6F0EE66ED1
:10102000000EE66E76EC0CF0176E090EE15E1750BE
:101030006F0EE66E000EE66E48EC0FF0E552E552DC
:101040003ED0B15106E0020EB15D03E0030EB15D8A
:1010500036E1A007A0C0E6FF060EE66E020EE66EC1
:1010600093EC0FF0E552E552E552FEEC10F0000172
:10107000A051E66EE66A1D0E146E1C0E156E166A01
:1010800014C0E6FF15C0E6FF16C0E6FF600EE66E70
:10109000000EE66E76EC0CF0176E070EE15E175050
:1010A000020EE66E010EE66E29DEE552E552600E96
:1010B000E66E000EE66E48EC0FF0E552E552140EB7
:1010C000E66E35EC10F0E5522BD1B10535E1B2C03A
:1010D000E9FFB3C0EAFFEF2A020EE66E010EE66EEC
:1010E0000DDEE552E552B2C0E9FFB3C0EAFFEF50B2
:1010F000E66EE66AB4C0E6FFB5C0E6FF2E0E146EDB
:101100001C0E156E166A14C0E6FF15C0E6FF16C069
:10111000E6FF6F0EE66E000EE66E76EC0CF0176ED4
:10112000090EE15E17506F0EE66E000EE66E48EC9B
:101130000FF0E552E5523ED0B15106E0020EB15D2E
:1011400003E0030EB15D36E1A02BA0C0E6FF060E62
:10115000E66E020EE66E93EC0FF0E552E552E552B4
:10116000FEEC10F00001A051E66EE66A1D0E146E52
:101170001C0E156E166A14C0E6FF15C0E6FF16C0F9
:10118000E6FF600EE66E000EE66E76EC0CF0176E73
:10119000070EE15E1750020EE66E010EE66EAEDD42
:1011A000E552E552600EE66E000EE66E48EC0FF07A
:1011B000E552E552140EE66E35EC10F0E552B0D073
:1011C000B1513FE1010EB16FE66EE66E97DDE5527B
:1011D000E552100EE66E010EE66E48EC0FF0E55299
:1011E000E552020EE66E010EE66E88DDE552E5522E
:1011F000B2C0E9FFB3C0EAFFEF50E66EE66AB4C0E2
:10120000E6FFB5C0E6FF2E0E146E1C0E156E166AB4
:1012100014C0E6FF15C0E6FF16C0E6FF6F0EE66ECF
:10122000000EE66E76EC0CF0176E090EE15E1750BC
:101230006F0EE66E000EE66E48EC0FF0E552E552DA
:1012400067D0B10565E1A1C0E6FFE66A020EE66E71
:1012500093EC0FF0E552E552E552FEEC10F0A2C01F
:10126000E6FF010EE66E020EE66E93EC0FF0E5521D
:10127000E552E552FEEC10F0A3C0E6FF020EE66E6A
:10128000E66E93EC0FF0E552E552E552FEEC10F0FD
:10129000A4C0E6FF030EE66E020EE66E93EC0FF0BE
:1012A000E552E552E552FEEC10F0A5C0E6FF040E53
:1012B000E66E020EE66E93EC0FF0E552E552E55253
:1012C000FEEC10F0A6C0E6FF050EE66E020EE66E1E
:1012D00093EC0FF0E552E552E552FEEC10F0010EF2
:1012E000E66EE7DCE552010EE66EE66E07DDE552DE
:1012F000E552300EE66E010EE66E48EC0FF0E55258
:10130000E552960EE66E35EC10F0E5520001B16B39
:10131000140EE66E35EC10F0E55202D001D000D08C
:10132000B7C0B8F00001B76B74D51200DACFE4FF94
:10133000E2CFDAFFE9CFE4FFEACFE4FFF6CFE4FF44
:10134000F7CFE4FFF5CFE4FFF3CFE4FFF4CFE4FF02
:10135000FACFE4FF00EE00F0140EE80403E3EECF52
:10136000E4FFFBD700EE14F0070EE80403E3EECF32
:10137000E4FFFBD7E652F2A42BD20001B15105E005
:10138000B10503E0050EB15D4FE18B8E9B0511E1C8
:10139000A1511B6E1C6A1B50A85D1C50A95905E386
:1013A0009B6B8B9CA86BA96B03D0A82B000EA92369
:1013B00011D0A2511B6E1C6A1B50A85D1C50A9596C
:1013C00006E3010E9B6F8B8CA86BA96B03D0A82B37
:1013D000000EA9239C0514E1A3510A0DF3CF1BF0C5
:1013E000F4CF1CF01B50AA5D1C50AB5905E39C6B5D
:1013F0008C92AA6BAB6B03D0AA2B000EAB2314D03C
:10140000A451640DF3CF1BF0F4CF1CF01B50AA5D68
:101410001C50AB5906E3010E9C6F8C82AA6BAB6B20
:1014200003D0AA2B000EAB23040EB15D45E19C0551
:1014300016E1A551640DF3CF1BF0F4CF1CF01B5047
:10144000AA5D1C50AB5907E3050EB16F9C6B8C92E3
:10145000AA6BAB6B03D0AA2B000EAB2305D0010EF9
:101460009C6F8C82AA6BAB6B9F51B05D24E3010E25
:10147000E66E1FDCE552010EE66EE66E3FDCE552DD
:10148000E552100EE66E1C0EE66E81EC0EF0E55293
:10149000E552020EE66E010EE66E30DCE552E552D4
:1014A000010EE66E1C0EE66E81EC0EF0E552E55282
:1014B0000001B06B01D0B02B050EB15D5BE19D0565
:1014C00016E1A651640DF3CF1BF0F4CF1CF01B50B6
:1014D000AC5D1C50AD5907E3B16B8C909D6B8C9843
:1014E000AC6BAD6B03D0AC2B000EAD2306D08C8063
:1014F000010E9D6F8C88AC6BAD6B9F51B05D39E375
:10150000870EE66E86EC10F0E55204EC11F0F8EC74
:1015100010F0000901E0FBD797EC10F0F3CF99F041
:10152000F4CF9AF0010EE66E59EC06F0E552010E8A
:10153000E66EE66E7EEC06F0E552E552100EE66EC3
:101540001C0EE66E81EC0EF0E552E552020EE66EE0
:10155000010EE66E7EEC06F0E552E552F70EE66E01
:101560001B0EE66E81EC0EF0E552E5520001B06B09
:1015700001D0B02B030EB15D01E08BD09F51B05D67
:1015800001E286D09B6B8B9C9C6B8C928C909D6BAC
:101590008C988B9E9F0EE66E86EC10F0E55204EC64
:1015A00011F0F8EC10F0000901E0FBD797EC10F017
:1015B000F3CF93F0F4CF94F0020E0D6E0E6A93C049
:1015C00008F094C009F0CCEC0CF008C093F009C00E
:1015D00094F0A70EE66E86EC10F0E55204EC11F0E4
:1015E000F8EC10F0000901E0FBD797EC10F0F3CF16
:1015F00095F0F4CF96F0020E0D6E0E6A95C008F0CD
:1016000096C009F0CCEC0CF008C095F009C096F03B
:10161000010EE66E59EC06F0E552010EE66EE66E3E
:101620007EEC06F0E552E552F20EE66E1B0EE66E1B
:1016300081EC0EF0E552E5520001A051E66EE66A3B
:101640001D0E1B6E1C0E1C6E1D6A1BC0E6FF1CC00F
:10165000E6FF1DC0E6FF600EE66E000EE66E76EC5D
:101660000CF01E6E070EE15E1E50020EE66E010EBD
:10167000E66E7EEC06F0E552E552600EE66E000E78
:10168000E66E48EC0FF0E552E5520001B06B01D078
:10169000B02BB15101E09BD09F51B05D01E296D0DB
:1016A0009F0EE66E86EC10F0E55204EC11F0F8ECBB
:1016B00010F0000901E0FBD797EC10F0F3CF93F0A6
:1016C000F4CF94F0020E0D6E0E6A93C008F094C031
:1016D00009F0CCEC0CF008C093F009C094F0A70E10
:1016E000E66E86EC10F0E55204EC11F0F8EC10F028
:1016F000000901E0FBD797EC10F0F3CF95F0F4CFA1
:1017000096F0020E0D6E0E6A95C008F096C009F0B4
:10171000CCEC0CF008C095F009C096F093C0E6FF41
:1017200094C0E6FFE10E1B6E1B0E1C6E1D6A1BC0F3
:10173000E6FF1CC0E6FF1DC0E6FF600EE66E000E71
:10174000E66E76EC0CF01E6E070EE15E1E50010E8A
:10175000E66EE66E7EEC06F0E552E552600EE66E51
:10176000000EE66E48EC0FF0E552E55295C0E6FF3C
:1017700096C0E6FF0001A051E66EE66AD00E1B6E31
:101780001B0E1C6E1D6A1BC0E6FF1CC0E6FF1DC0C1
:10179000E6FF600EE66E000EE66E76EC0CF01E6E56
:1017A000090EE15E1E50020EE66E010EE66E7EEC44
:1017B00006F0E552E552600EE66E000EE66E48EC6D
:1017C0000FF0E552E5520001B06B01D0B02B01D013
:1017D0008C8CD76AC80ED66EF294E55200EE1AF0E1
:1017E000070EE80403E3E5CFEDFFFBD700EE13F0AF
:1017F000140EE80403E3E5CFEDFFFBD7E5CFFAFFD6
:10180000E5CFF4FFE5CFF3FFE5CFF5FFE5CFF7FF39
:10181000E5CFF6FFE5CFEAFFE5CFE9FFE5CFDAFF59
:021820001100B5
:0E182200D9CFE6FFE1CFD9FF0F0E8116931646
:101830009394939693928A948A968A9272EC06F085
:10184000300EE66E21EC0FF0E552050EE66E35EC3B
:1018500010F0E552300EE66E21EC0FF0E552010E6D
:10186000E66E35EC10F0E552320EE66E21EC0FF02C
:10187000E552FCEC0FF0000901E0FBD7FCEC0FF0A7
:10188000000901E0FBD7FE0EDBCFE6FF21EC0FF0F5
:10189000E552FCEC0FF0000901E0FBD70C0EE66E00
:1018A00021EC0FF0E552FCEC0FF0000901E0FBD752
:1018B000010EE66E21EC0FF0E552FCEC0FF0000992
:1018C00001E0FBD7040EE66E21EC0FF0E552FCECD4
:1018D0000FF0000901E0FBD7800EE66EAAEC0EF0D7
:0C18E000E55200D0E552E7CFD9FF12001E
:0418EC00D9CFE6FF6B
:1018F000DACFE6FFE1CFD9FFE2CFDAFFE652E652D8
:10190000E652E652D950F90F146EFF0EDA20156E2A
:10191000020E14C0DBFF030E15C0DBFF020EDBCF8F
:10192000E6FF030EDBCFE6FFF90EDBCFE6FFFA0E94
:10193000DBCFE6FFFB0EDBCFE6FFD950FC0FE66EF8
:10194000FF0EDA20E66E24EC00F0146E070EE15C68
:1019500002E2E16AE552E16E1450F3CFDEFFF4CF0C
:10196000DDFFFC0EDBCFE9FFFD0EDBCFEAFFEF6A08
:10197000DECF14F0DDCF15F014C0F3FF15C0F4FF77
:10198000040EE15C02E2E16AE552E16EE552E5CF68
:08199000DAFFE7CFD9FF1200D6
:08199800006A0EAED5EF0CF061
:1019A0000D6C0E1EE86A0E22001E09AEDDEF0CF073
:1019B000086C091EE86A0922001E4CEC10F009BEF2
:1019C000EDEF0CF000AE000C086C091EE86A09226D
:1019D000046C051EE86A0522000C00BEE4EF0CF062
:1019E0000188FF0C09C013F008C012F008500D0266
:1019F000F4CF07F0F3CF06F009500E02F4CF09F050
:101A0000F3CF08F00D02F3500726F4500822E86ADD
:101A1000092212500E02F3500726F4500822E86AF9
:101A200009220EAE18EF0DF01250085E1350095A3D
:0E1A300013AE000C0D50085E0E50095A000C4B
:021A3E000E0E8A
:101A4000F66E000EF76E000EF86E00010900F550FC
:101A5000CD6F0900F550CE6F03E1CD6701D03DD0C9
:101A60000900F550C86F0900F550C96F0900F5501D
:101A7000CA6F09000900F550E96E0900F550EA6ED9
:101A8000090009000900F550CB6F0900F550CC6F33
:101A900009000900F6CFCFF0F7CFD0F0F8CFD1F0A2
:101AA000C8C0F6FFC9C0F7FFCAC0F8FF0001CB539A
:101AB00002E1CC5307E00900F550EE6ECB07F8E2E7
:101AC000CC07F9D7CFC0F6FFD0C0F7FFD1C0F8FFE1
:0C1AD0000001CD07000ECE5BBFD7120056
:041ADC00D9CFE6FF79
:101AE000DACFE6FFE1CFD9FFE2CFDAFFFB0EDBCFA3
:101AF00014F0FC0EDBCF15F00001800E15141AE176
:101B0000FB0EDBCFE9FFFC0EDBCFEAFFEECFF3FFEE
:101B1000EDCFF4FFEE2A000EEF22F3CFE9FFF4CF72
:101B2000EAFFFD0EDBCFEFFFEF50156AF36E15C035
:101B3000F4FF10D0FB0EDB50FE0806E1FD0EDBCFFC
:101B4000E6FFD6EC10F005D0FD0EDBCFE6FF03EC90
:101B500000F0E552E552E5CFDAFFE7CFD9FF1200FA
:101B600006500B02F3CF02F0F4CF03F00C02F35057
:101B70000326000EF420046E06500D02F3500426D6
:101B8000000EF420056E06500E02F3500526075095
:101B90000B02F3500326F4500422000E05220750D6
:101BA0000C02F3500426F450052207500D02F350A6
:101BB000052608500B02F3500426F4500522085065
:101BC0000C02F350052609500B02F35005261200B3
:101BD000542E43663A25692020542E486F3A2569D1
:101BE0000054656D7020416D6269656E743A2569B7
:101BF000200053544F5000457363616C66616E74EE
:101C0000004F6D706C696E742070656C6C6574004B
:101C1000417272616E63616E742E2E2E0054656D7A
:101C20007020436F6D666F72743A256920002573CA
:091C3000203D2025692020200040
:061C3A00FE0EE3CFE9FFFE
:101C4000FF0EE3CFEAFFF36AF46AEE5203E0F34AD1
:101C5000F42AFBD71200FF0EE3CFF8FFE552FF0E88
:101C6000E3CFF7FFE552FF0EE3CFF6FFE552E66A5A
:101C7000E66AE66A0900F55209E0FD0EE32A05E18D
:101C8000FE0EE32A02E1FF0EE32AF4D7FD0EE3CFB6
:101C900007F0FE0EE3CF08F0FF0EE3CF09F01200CD
:101CA000D9CFE6FFE1CFD9FFC26AC06AFD0EDB40A3
:101CB0007F0B3C0BC26EFD0EDB38F00B300B146E4D
:101CC000FC0EDB500F0B1410C16EFE0EDB50040D2A
:101CD000F350380B156EFE0EDB380F0B070B146E2E
:101CE000FE0EDB50800B14101510C06EFD0EDBAE27
:101CF00003D09E9C9D8CF28CC280E552E7CFD9FF29
:021D00001200CF
:0E1D0200D9CFE6FFE1CFD9FFFD0EDBCFF6FF14
:101D1000FE0EDBCFF7FF0800F55017E0FCEC0FF0EC
:101D2000000901E0FBD7FD0EDBCFF6FFFE0EDBCF97
:101D3000F7FF0800F550E66EFAEC0EF0E552FD0EE6
:101D4000DB2AFE0E01E3DB2AE0D700D0E552E7CF25
:041D5000D9FF1200A5
:0C1D5400D9CFE6FFE1CFD9FF0F0E9316A8
:101D60008116FE0EDB508009F00B81128A948A9650
:101D70006CEC06F08A826CEC06F08A920F0E8116EB
:101D8000FE0EDB38F00BF00B81126CEC06F08A8251
:101D90006CEC06F08A92F00E931200D0E552E7CF79
:041DA000D9FF120055
:0C1DA400D9CFE6FFE1CFD9FF0F0E931658
:101DB0008116FE0EDB504009F00B81128A948A9640
:101DC0006CEC06F08A826CEC06F08A920F0E81169B
:101DD000FE0EDB38F00BF00B81126CEC06F08A8201
:101DE0006CEC06F08A92F00E931200D0E552E7CF29
:041DF000D9FF120005
:0C1DF400D9CFE6FFE1CFD9FF0F0E931608
:101E00008116FE0EDB50F00B81128A868A946CECF0
:101E100006F08A826CEC06F08A920F0E8116FE0E96
:101E2000DB38F00BF00B81126CEC06F08A826CEC64
:101E300006F08A92F00E931200D0E552E7CFD9FF58
:021E400012008E
:0E1E4200D9CFE6FFE1CFD9FF0F0E9316811620
:101E5000FE0EDB50F00B81128A948A966CEC06F031
:101E60008A826CEC06F08A920F0E8116FE0EDB3829
:101E7000F00BF00B81126CEC06F08A826CEC06F031
:101E80008A92F00E931200D0E552E7CFD9FF1200EC
:101E9000D9CFE6FFE1CFD9FFFD0EDBCFE9FFFE0E84
:101EA000DBCFEAFFEF5016E0FCEC0FF0000901E099
:101EB000FBD7FD0EDBCFE9FFFE0EDBCFEAFFEF50D5
:101EC000E66EFAEC0EF0E552FD0EDB2AFE0E01E3A3
:0E1ED000DB2AE2D700D0E552E7CFD9FF12009F
:021EDE00056A93
:101EE000046A036A026A200EE76ED8900636073647
:101EF0000836093602360336043605360B50025CC6
:101F00000C5003580D5004580E50055809E30B505F
:101F1000025E0C50035A0D50045A0E50055A062A00
:061F2000E72EE4D71200D9
:0A1F2600D9CFE6FFE1CFD9FFFF0E8F
:101F3000E76EFD0EDBCF14F0FE0EDBCF15F0E750A1
:101F40001416156A1450A96EFC0EDB50A86EA69EDE
:101F5000A69CA684F29E550EA76EAA0EA76EA68218
:0C1F6000F28EA694E552E7CFD9FF1200E4
:041F6C00D9CFE6FFE4
:101F7000E1CFD9FFE6528A848A866CEC06F08A8229
:101F80006CEC06F0F00E8114DF6E8A926CEC06F0B9
:101F90008A826CEC06F081380F0B0F0BDF128A92ED
:101FA0008A968A94DF5000D0E552E552E7CFD9FFF8
:021FB00012001D
:0E1FB200D9CFE6FFE1CFD9FFE6528A848A96A6
:101FC0006CEC06F08A826CEC06F0F00E8114DF6E89
:101FD0008A926CEC06F08A826CEC06F081380F0B6A
:101FE0000F0BDF128A928A947F0EDF1400D0E55225
:081FF000E552E7CFD9FF120012
:081FF8008A848A966CEC06F065
:102000008A826CEC06F081AE0BD08A926CEC06F002
:102010008A826CEC06F08A928A94010E0BD00AD068
:102020008A926CEC06F08A826CEC06F08A928A94B2
:06203000000E00D01200BA
:0A203600D9CFE6FFE1CFD9FFFF0E7E
:10204000E76EFD0EDBCF14F0FE0EDBCF15F0E75090
:102050001416156A1450A96EA69CA69EA680A850B8
:0A20600000D0E552E7CFD9FF1200CF
:06206A00FF0EE350206EA2
:10207000EF0E01D0F30EE76EE72E3CEF10F00C0EE2
:102080001F6EE76AE72E42EF10F01F2E41EF10F0AF
:08209000202E3AEF10F01200BF
:08209800056A046A100EE76EF0
:1020A000D89008360936043605360D50045C0E50BB
:1020B000055805E30D50045E0E50055A082AE72E18
:0420C000F0D7120043
:0C20C400F36AF46AFF0EE124E96EFF0EDF
:1020D000E220EA6EED6607D02F0EEF6404D03A0ED0
:0820E000EF6001D0F32A1200A9
:0820E800D9CFE6FFE1CFD9FFDB
:1020F000FE0EDB407F0B3C0B146EC30EC21414109B
:0C210000C26EC282E552E7CFD9FF120088
:04210C00D9CFE6FF42
:10211000E1CFD9FFC30EC214146EFE0EDB407F0B5D
:0E2120003C0B1410C26EE552E7CFD9FF12003F
:02212E00C4509B
:10213000166E16C017F0166AC35000011610146E02
:1021400017C015F014C0F3FF15C0F4FF00D0120043
:10215000FF0EE350206E480E01D04C0EE76EE72EC6
:10216000FED7E76AE72EFED7202EF7D70000120031
:10217000000EF36E00EE00F0040E01D81200EA60CB
:1021800002D0EE6AFCD7F350E9601200EE6AFCD789
:1021900013EE00F023EE00F0F86A019C1FEC0DF046
:0C21A00006EC11F098EC06F0FBD71200E2
:0421AC00FF0EE350EF
:1021B000ACBA04D0AF6AAB8EAC8A949CACA2FED70A
:0821C000AD6EF36EF46A12002B
:0821C800FF0EE350E84E120087
:0E21D000000000D000D000D0E82EFAD7120098
:0221DE0030319E
:0F21E000323334353637383961626364656600EF
:0C21F000C250020B01E0010E00D01200F2
:0421FC00A6B2FED7B2
:022200001200CA
:06220200C2909D9C120039
:04220800C28212007C
:02220C001200BE
:02220E00546515
:102210006D7020436F6D666F72743A00000050520B
:102220004F4752414D4143494F20202020007275B5
:102230006E6E696E672020202020202020004775C8
:10224000617264617420636F7272656374004164CB
:102250006D696E6973742070656C6C657400696F6C
:102260006D6F696F6D6F20202020202020200000DE
:10227000000000455854525F4F4E001F1F455854F0
:10228000525F4F4646000050454C4C455F4F4E0054
:102290000050454C4C455F4F46460041444D494E29
:1022A000495F415200455343414C465F4152000053
:1022B000004D4943524F434849505F5445434800FD
:0122C000001D
:020000040030CA
:0100000000FF
:0100010000FE
:0100020038C5
:010003001EDE
:010005008179
:010006008079
:010008000FE8
:01000900C036
:01000A000FE6
:01000B00E014
:01000C000FE4
:01000D0040B2
:00000001FF
